:020000040000FA
:10000000C04B0020BD040000C1040000C304000078
:10001000C5040000C7040000C9040000000000007F
:10002000000000000000000000000000D1030000FC
:10003000CD0400000000000059040000A9040000E5
:10004000D3040000D5040000D7040000D904000048
:10005000DB040000DD040000DF040000E104000018
:10006000E3040000E5040000E7040000E9040000E8
:10007000EB040000ED040000EF040000F1040000B8
:10008000F3040000F5040000F7040000F904000088
:10009000FB040000FD040000FF0400000105000057
:1000A0000305000005050000070500000905000024
:1000B0000B0500000D0500000F05000011050000F4
:1000C00013050000150500001705000019050000C4
:1000D0001B0500001D0500001F0500002105000094
:1000E0002305000025050000000000002705000092
:1000F000290500002B0500002D0500002F0500003C
:10010000310500003305000035050000370500000B
:100110000000000000000000390500003B05000061
:100120003D0500003F0500004105000043050000BB
:100130004505000047050000490500004B0500008B
:1001400000000000000000000000000000000000AF
:100150004D0500004F05000051050000530500004B
:10016000000000000000000000000000000000008F
:10017000000000000000000000000000000000007F
:10018000000000000000000000000000000000006F
:10019000000000000000000000000000000000005F
:1001A000000000000000000000000000000000004F
:1001B0005505000057050000590500005B050000CB
:1001C0005D0500005F05000061050000630500009B
:1001D0006505000067050000690500006B0500006B
:1001E0006D0500006F0500007105000000000000B3
:1001F0000000000073050000750500007705000091
:10020000790500007B0500000000000000000000F0
:100210007D0500007F0500008105000083050000CA
:100220008505000087050000890500008B0500009A
:100230008D0500008F05000091050000930500006A
:100240009505000097050000990500009B0500003A
:100250009D0500009F050000A1050000A30500000A
:10026000A5050000A7050000A905000000F002F8A0
:1002700000F052F80AA090E8000C82448344AAF1EE
:100280000107DA4501D100F047F8AFF2090EBAE8EC
:100290000F0013F0010F18BFFB1A43F001031847BA
:1002A000A4BC0000C4BC00000A4410F8014B14F0C8
:1002B0000F0508BF10F8015B240908BF10F8014BB7
:1002C0006D1E05D010F8013B6D1E01F8013BF9D100
:1002D000641E03D0641E01F8015BFBD19142E4D39C
:1002E000704700000023002400250026103A28BF94
:1002F00078C1FBD8520728BF30C148BF0B60704798
:10030000642909F02582752909F0228200207047AE
:100310001FB51FBD10B510BD09F0DBFA1146FFF780
:10032000F7FF01F09FFB09F0F9FA03B4FFF7F2FFC2
:1003300003BC09F0F9FA0000EFF3108072B67047C1
:10034000EFF310807047EFF3108062B6704730BF54
:10035000704780F311887047EFF3118070470000F9
:100360000138FDD17047000080F309887047EFF332
:1003700009807047684680F3098804480078C00700
:1003800014BF0220032080F31488704720B80000B7
:10039000DFF818C0EFF305831B0618BF6047EFF3C3
:1003A0001483DB0708BF604700DF7047479A0000EF
:1003B000DFF818C0EFF305831B0618BF6047EFF3A3
:1003C0001483DB0708BF604700DF7047E19B000034
:1003D000EFF30980816911F8021C39BB90E80F1016
:1003E000E047EFF3098C194B93E80600914218D0CF
:1003F00059B10CB44FF0010381F826302CE9F00F0D
:10040000C1F82CC009F05CFF0CBC1A60D2F82CC0FB
:10041000BCE8F00F92F826308CF309881BB192F8F3
:100420002500CCF800006FF0020E704710B5084AA6
:100430001268914209D8074C54F8214090E80F10F7
:10044000A047EFF3098C8CE80F0010BD14010020C9
:10045000389900003899000009F00CFE114B93E820
:10046000060091421BD00CB44FF0000381F82630F7
:10047000EFF3098C2CE9F00FC1F82CC009F020FF34
:100480000CBC1A60D2F82CC0BCE8F00F8CF30988C1
:1004900092F826301BB192F82530CCF800306FF07E
:1004A000020E70471401002009F0DAFFD6E70000C1
:1004B00009F0C8FA09F0D4FFD0E700003E48004731
:1004C000FEE7FEE7FEE7FEE7FEE7FEE7FEE7FEE704
:1004D000FEE7FEE7FEE7FEE7FEE7FEE7FEE7FEE7F4
:1004E000FEE7FEE7FEE7FEE7FEE7FEE7FEE7FEE7E4
:1004F000FEE7FEE7FEE7FEE7FEE7FEE7FEE7FEE7D4
:10050000FEE7FEE7FEE7FEE7FEE7FEE7FEE7FEE7C3
:10051000FEE7FEE7FEE7FEE7FEE7FEE7FEE7FEE7B3
:10052000FEE7FEE7FEE7FEE7FEE7FEE7FEE7FEE7A3
:10053000FEE7FEE7FEE7FEE7FEE7FEE7FEE7FEE793
:10054000FEE7FEE7FEE7FEE7FEE7FEE7FEE7FEE783
:10055000FEE7FEE7FEE7FEE7FEE7FEE7FEE7FEE773
:10056000FEE7FEE7FEE7FEE7FEE7FEE7FEE7FEE763
:10057000FEE7FEE7FEE7FEE7FEE7FEE7FEE7FEE753
:10058000FEE7FEE7FEE7FEE7FEE7FEE7FEE7FEE743
:10059000FEE7FEE7FEE7FEE7FEE7FEE7FEE7FEE733
:1005A000FEE7FEE7FEE7FEE7FEE70000034804493A
:1005B000024A044B704700006D020000C049002051
:1005C000C04B0020C049002008B500200090002446
:1005D00025E06420DFF8E4C300DF0021F84801F0E3
:1005E00071FE00BF00221146F54801F0B8FD002859
:1005F000F8D06A460021F24801F053FE40F6CA21C5
:100600000098884201D2641C00E000240A2C06D91C
:100610004FF6FF720121EB48DFF8ACC300DFD8E7EB
:1006200088B000240027A2464FF019094BE04FF68E
:10063000FF7207A9E548DFF898C300DF079D00BFF8
:1006400006AA05A9284606F07AFC8046DFF884C38E
:1006500000DF04464FF6FF7207A9DC48DFF870C3DD
:1006600000DF079E00BF1FFA86F9B8F1010F01D124
:1006700000BFA246E01BB0F57A7F24D32746A4EB47
:100680000A00B0F5FA6F0FD34B46BDF81820D2A17F
:10069000684609F015F86946D24804F04AFAD2A132
:1006A000D04804F046FA0EE04B46BDF81820CFA122
:1006B000684609F005F86946CA4804F03AFACAA142
:1006C000C84804F036FAB2E798B0002400250027A5
:1006D0000026A046A14600200190039002900490BD
:1006E000ADF81400ADF81600ADF81800ADF81A001A
:1006F0000821C04802F0A7F8D3E000224FF6FF71AE
:100700000120DFF8F4C200DF681CC5B2781CC7B254
:10071000701CC6B208F101001FFA80F809F101004F
:1007200000F0FF09282F30D14FF6FF71B348DFF8F2
:10073000D0C200DFB34805F040FA11A805F037F940
:100740001294641CB04AB14911A808F063FE0198E4
:10075000401C01900020ADF82400ADF82600ADF853
:100760002800ADF81E00ADF81C00ADF82000A84A26
:1007700007A909A806F0C2FF0398401C03900027B0
:100780009E48DFF890C200DF19E04FF6FF719B48EA
:10079000DFF86CC200DF9B4805F00FFA11A805F0E6
:1007A00006F91294641C984A984911A808F032FE80
:1007B0000198401C01909148DFF858C200DF022DDB
:1007C0001BD10FA805F06AFE8F4A93490FA805F0C8
:1007D000BDFE0DA805F07FFE8B4A90490DA805F0DF
:1007E00040FF0BA805F094FE874A8D490BA805F041
:1007F000C3FF0298401C02900025C82E07D18949EA
:1008000005A804F0DFFC0498401C049000268648EC
:10081000DFF818C200DF04280AD24FF6FF726946DB
:100820008148DFF8ACC100DF814901A804F082FDF6
:10083000B8F5485F35D14FF0000801207C4981F8B8
:100840000004084690F8010410B1012819D10CE009
:10085000774890F8020420F00100401C744981F8A8
:100860000204002081F800020BE0714890F80204B5
:1008700020F00200801C6E4981F8020400200870FC
:1008800000BF00BF6A4890F80104401C684981F825
:100890000104084690F80104022802D1002081F8E2
:1008A00001042AE72DE9F84380460D461646002745
:1008B000B6F5007F00D2012705F48030002879D0FA
:1008C0005C49681A8D4276D009DCA5F58030A0F12C
:1008D000A00048B1012829D040286DD148E00F2858
:1008E0006BD01028F9D1F1E06B464FF40072484903
:1008F000404608F07FF804460CB1022715E0BDF829
:100900000000B0F5007F01D003270EE0DFF828C11A
:1009100000DF3F4890F8020420F001003C4981F8D4
:100920000204DFF818C100DF0027F2E06B464FF445
:1009300000724349404608F05DF804460CB10227B6
:1009400015E0BDF80000B0F5007F01D003270EE0F0
:10095000DFF8E4C000DF2E4890F8020420F0020027
:100960002B4981F80204DFF8D4C000DF0027D0E073
:100970006B464FF400722B49404608F03BF80446A2
:100980000CB1022715E0BDF80000B0F5007F01D0E2
:1009900003270EE0DFF8A0C000DF224890F8000433
:1009A00020F001001F4981F80004DFF890C000DF4B
:1009B0000027AEE0AEE045E0AAE065E0519B000014
:1009C00000800340A0240020B99D0000E024002006
:1009D0005D9E0000A1A40000234025643F212575F1
:1009E0000000000000D000400A0D000023402564F4
:1009F0002125750000500040A59B00000024002028
:100A00000DA00000002D310120240020540C0020F6
:100A100064120020299F0000D80D00205C0F0020E8
:100A2000E010002068160020C0240020C59C0000B3
:100A30006C1A0020E10001007DA5000069A60000FD
:100A4000641400206B464FF40072FD49404607F0E5
:100A5000D1FF04460CB1022715E0BDF80000B0F547
:100A6000007F01D003270EE0DFF8D8C300DFF6488F
:100A700090F8000420F00200F34981F80004DFF848
:100A8000CCC300DF002744E06B464FF40072F0490E
:100A9000404607F0AFFF04460CB1022715E0BDF851
:100AA0000000B0F5007F01D003270EE0DFF894C30B
:100AB00000DFE74890F8020420F00100E44981F8E3
:100AC0000204DFF888C300DF002722E06B464FF402
:100AD0000072E049404607F08DFF04460CB1022742
:100AE00015E0BDF80000B0F5007F01D003270EE04F
:100AF000DFF850C300DFD64890F8020420F002006F
:100B0000D34981F80204DFF844C300DF002700E086
:100B100000BF21E007BB4FF6FF722946CE48DFF841
:100B20003CC300DF4FF6FF724946CD48DFF834C3BF
:100B300000DF6B464FF40072CB49404607F05AFF86
:100B400004460CB1022707E0BDF80000B0F5007FB5
:100B500001D0032700E000273846BDE8F88330B510
:100B600004468C4201D3601A02E0A51A1D44681A9B
:100B700030BD2DE9F84F0446DFF8C8C200DFBB489E
:100B80000568BB480668BB480768BB48D0F80080CA
:100B9000BA48D0F80090BA48D0F800A0B948D0F8C8
:100BA00000B0B94800680090A74890F80004217C84
:100BB00060F300012174A44890F800044108207CEF
:100BC00061F341002074B14890F80204217C60F385
:100BD00082012174AD4890F802044108207C61F341
:100BE000C30020749A4890F80204217C60F3041139
:100BF0002174974890F802044108207C61F3451065
:100C00002074DFF848C200DFA14B0022294630469D
:100C1000FFF7A5FF20604FF4D1339D4A3946404687
:100C2000FFF79DFF60609B4B4FF4D1324946504621
:100C3000FFF795FFA0604FF40033964A594600989D
:100C4000FFF78DFFE060BDE8F88F86B00026002535
:100C500052E1002D7EDDE91705EB5171C910A5EBBE
:100C6000C101002935D100BF01A8FFF782FF4FF075
:100C70005A418948029AFFF715FE04461CB101202B
:100C8000DFF818C200DF002CEED100BF01A8FFF78B
:100C900070FF4FF05B418048039AFFF703FE044664
:100CA0001CB10120DFF8F4C100DF002CEED100BF41
:100CB00001A8FFF75EFF4FF05C417748049AFFF709
:100CC000F1FD04461CB10120DFF8D0C100DF002C8B
:100CD000EED1642095FBF0F100FB115030BB00BF5A
:100CE00001A8FFF746FF9DF81400C0F3800038B15B
:100CF0004FF400726A496848FFF7D4FD04460EE0DD
:100D00009DF81400C0F3C00040B14FF40072644974
:100D1000491C6148FFF7C6FD044600E001241CB1F0
:100D20000120DFF878C100DF002CD9D14FF44870E2
:100D300095FBF0F100FB1150002852D100BF01A833
:100D4000FFF717FF9DF8140000F0010050B14FF4B9
:100D5000007200E045E0524940314F48FFF7A2FDE4
:100D600004460EE09DF81400C0F3400040B14FF47B
:100D700000724B4941314848FFF794FD044600E0BA
:100D800001241CB10120DFF814C100DF002CD6D1F2
:100D900000BF01A8FFF7EDFE9DF81400C0F300109E
:100DA00040B14FF400723E4950313B48FFF77AFDA5
:100DB00004460EE09DF81400C0F3401040B14FF41B
:100DC0000072374951313448FFF76CFD044600E0AA
:100DD00001241CB10120DFF8C4C000DF002CD8D1F1
:100DE000002500BF01A8FFF7C4FE4FF05E412A486E
:100DF000019AFFF757FD04461CB10120DFF89CC0A3
:100E000000DF002CEED1681C85B2701C86B2322E39
:100E100072DD0026204807F0CBFE2248DFF888C0AC
:100E200000DF032868D84FF6FF7269461D48DFF8D7
:100E300034C000DF0098012838D002285BD14EE092
:100E4000681800207DA500006816002069A6000033
:100E50006C1A00206C1C002020240020B99D00008A
:100E6000582400205D9E0000000800203000002073
:100E700034000020380000203C000020400000200A
:100E800044000020480000204C0000206412002094
:100E90000073010000D10100300C0020519B0000C4
:100EA000A0000100A0240020C59C0000FE4807F01F
:100EB000C4FE0022AFF2D841104607F01BFC01E04F
:100EC00003F0E6FF02214FF0402001F0EFFC00F0BC
:100ED00002000028F4D102F002F800BFFEE7F24859
:100EE00007F0ABFE0022AFF20851104607F002FCFB
:100EF00002F06FFE00BF00BFABE608B563E34FF63C
:100F0000FF726946E948DFF8A8C300DF009C00BF14
:100F1000E848211A844276D01BDC6FF08052A1EBA6
:100F20000200914270D00ADCA0EB020050B301280D
:100F300048D002286AD0B0F1805F42D18EE0B1F192
:100F4000704F7DD011F1020F7BD0B1F1FF3FF4D192
:100F500008E1B4F15E4F75D009DCB4F15A4F72D09C
:100F6000B4F15B4F70D0B4F15C4FE6D180E2B4F1E4
:100F7000604F6AD06FF060402044002866D001289E
:100F8000DBD171E18022CC49CC48006804F0A6FA9C
:100F9000CA4800688030C949086008460068C849E6
:100FA0000968884202D10120C6490870C348006818
:100FB000B0F5D13F02D1C448C04908600020C34900
:100FC0000870FFE28022BC498031BC48006804F010
:100FD00085FABA4800688030B84908600846006859
:100FE000B7490968884202D10120B6490870B34860
:100FF0000068B0F5D13F02D1B348B0490860012084
:10100000B2490870DEE2CEE049E0FFE78022B04955
:10101000AA48006804F062FAA84800688030A7492E
:10102000086008460068A6490968884202D1012084
:10103000A4490870A1480068B0F5D13F0AD106E084
:101040004FE06FE067E265E1B7E1CCE0EBE09E489E
:101050009A49086002209D490870B3E280229D49A8
:101060009D48006804F03AFA9B48006880309A492D
:1010700008600846006899490968884202D1012041
:1010800090490870944800689549884203D14FF40C
:10109000D1309149086000209249087092E2802284
:1010A0008C4980318C48006804F018FA8A4800683E
:1010B0008030894908600846006888490968884284
:1010C00002D101207F490870834800688449884222
:1010D00003D14FF4D1308049086001208149087064
:1010E00070E2802280497C48006804F0F7F97A4871
:1010F00000688030784908600846006877490968C8
:10110000884202D101206F49087073480068744911
:10111000884203D14FF4D1306F49086002207149F1
:1011200008704FE2802271497148006804F0D6F9D6
:101130006F48006880306E490860084600686D4955
:101140000968884202D101205E4908706848006839
:10115000B0F5003F02D16248654908600020664949
:1011600008702FE28022614980316148006804F0F4
:10117000B5F95F48006880305D490860084600683E
:101180005C490968884202D101204E4908705848DC
:101190000068B0F5003F02D1514855490860012070
:1011A000554908700EE2802254495148006804F005
:1011B00095F94F48006880304D490860084600683E
:1011C0004C490968884202D101203E4908704848CC
:1011D0000068B0F5003F02D141484549086002204F
:1011E00045490870EEE1802245494648006804F010
:1011F00075F9444800688030424908600846006834
:1012000041490968884202D101202E4908703D48B1
:1012100000682D49884202D100203A490860002028
:101220003A490870CEE1802235498031354800685E
:1012300004F054F9334800688030324908600846A9
:10124000006831490968884202D101201D490870AF
:101250002C4800681C49884202D1002029490860B6
:1012600001202A490870ADE18022294925480068FB
:1012700004F034F9234800688030224908600846A9
:10128000006821490968884202D101200D4908708F
:101290001C4800680C49884202D1002019490860A6
:1012A00002201A4908708DE1300C00202024002013
:1012B0005D9E0000020000C0D80D00203C00002010
:1012C00038000020080000200073010050000020BA
:1012D000D80E00205C0F00204400002040000020B9
:1012E00000D10100510000205C100020E01000201F
:1012F0004C0000204800002052000020E011002097
:10130000540C002034000020300000205300002046
:10131000540D00208022FE49FE48006804F0B3F816
:10132000FC4800688030FB49086008460068B0F55A
:10133000D13F01D1F84808608022F5498031F54855
:10134000006804F0A0F8F34800688030F1490860B4
:1013500008460068B0F5D13F01D1EF48086080220F
:10136000EE49EC48006804F08EF8EA4800688030E6
:10137000E849086008460068B0F5D13F01D1E64869
:1013800008608022E5498031E248006804F07BF87B
:10139000E04800688030DF49086008460068B0F522
:1013A000D13F01D1DC4808604FF6FF724FF05A413F
:1013B000DB48DFF870C300DF04E18022D449DA485B
:1013C000006804F060F8D84800688030D6490860AA
:1013D00008460068D549884203D14FF4D130D2493C
:1013E00008608022CA498031CF48006804F04BF879
:1013F000CD4800688030CC49086008460068CB4979
:10140000884203D14FF4D130C74908608022C349D4
:10141000C548006804F037F8C34800688030C24906
:10142000086008460068C149884203D14FF4D130B2
:10143000BD4908608022B9498031BB48006804F08A
:1014400022F8B94800688030B7490860084600684B
:10145000B649884203D14FF4D130B34908604FF602
:10146000FF724FF05B41AE48DFF8B8C200DFA9E081
:101470008022A749AE48006804F005F8AC4800682F
:101480008030AB49086008460068B0F5003F01D1E4
:10149000A648086080229E498031A548006803F074
:1014A000F2FFA34800688030A14908600846006840
:1014B000B0F5003F01D19D480860802297499C48C3
:1014C000006803F0E0FF9A4800688030984908609F
:1014D00008460068B0F5003F01D1944808608022BA
:1014E0008E4980319248006803F0CDFF9048006833
:1014F00080308F49086008460068B0F5003F01D190
:101500008A4808604FF6FF724FF05C418448DFF86C
:1015100014C200DF56E080227D498648006803F04F
:10152000B2FF84480068803082490860084600683D
:101530007949884202D100207E490860802274499E
:1015400080317C48006803F09EFF7A480068803054
:1015500078490860084600686F49884202D1002037
:101560007449086080226D497248006803F08BFF5F
:101570007048006880306F49086008460068664916
:10158000884202D100206B49086080226349803183
:101590006848006803F077FF664800688030654956
:1015A0000860084600685C49884202D10020614911
:1015B00008604FF6FF724FF05E415948DFF864C192
:1015C00000DF00BF00BF9AE4DFF86CC100DF5B49B9
:1015D000086038215A48DFF86CC100DF20215048EC
:1015E000DFF860C100DF28215748DFF858C100DF6D
:1015F00020215648DFF84CC100DF20215448DFF895
:1016000044C100DF20215348DFF838C100DF5248D1
:10161000DFF848C100DF00231A460421AFF225702D
:10162000DFF83CC100DF4F49086000231A46032160
:10163000AFF6E910DFF828C100DF4B49086000234E
:101640001A460621AFF67F70DFF814C100DF474964
:10165000086000231A4605214548DFF804C100DF71
:101660004449086000231A4602214348DFF8F0C0CD
:1016700000DF4249086006210020DFF804C100DFD6
:10168000FF21404802F058FF12E000224FF6FF71A0
:101690000120DFF8F4C000DF4FF6FF712E48DFF8BD
:1016A000ECC000DF2C48DFF8E8C000DF03F075FD78
:1016B000EBE710B540F6B8303649486040F69E700A
:1016C000886040F6B830C86040F69F70086100201E
:1016D000486140F2E6308861801CC86140F2CE70FB
:1016E00008624FF47A70486240F2CF708862401C02
:1016F000C86240F6B63008630220486340F2E73023
:101700008863C01CC86340F2CF700864C01C43E00B
:1017100000080020380000200073010000090020AC
:1017200058240020B99D00004000002000D1010095
:10173000480000203000002059A6000018000020BA
:1017400020240020CD9C000078240020A02400202C
:10175000C0240020E024002000240020199F000065
:10176000EDA400001C000020200000202400002028
:101770002106000028000020C90500002C000020E0
:10178000CDA5000000000340A59B00000DA00000B7
:10179000299F000000250020486440F6B730886487
:1017A000C01CC86440F69F700865002048658865C5
:1017B0004FF47A70C865086640004866886640F64F
:1017C000B830C866086740F69F7048670120886790
:1017D0000020C1F88000C1F884004FF40030C1F847
:1017E0008C00FE48C1F888000821002004F042FB6C
:1017F000642005F053F80821002004F071FC6420F7
:1018000005F04CF80821002004F083FD642005F069
:1018100045F8F34804F04CFB012004F002FB0446B9
:10182000EF4804F07BFC012004F031FC0446EC4856
:1018300004F08DFD012004F043FD0446641E10BD3C
:1018400010B50446FF220421E64801F03FF8204687
:10185000FEF786FD00220421E24801F037F8204619
:10186000FEF77EFD10BD10B5DF480168012008F0CD
:10187000B9F810BD10B5DD480168012008F0B2F8D4
:1018800010BD10B54FF0FF31D94800F0F0FF10BD8A
:1018900010B50121D74800F0E2FF04464FF0FF31B8
:1018A000D44800F0E4FF04F0080020B1D2480168F9
:1018B000012008F097F810BD10B54FF0FF314FF040
:1018C000402000F0D4FF10BD10B50121CB4802F03C
:1018D00075FF07F085FD10BD10B50121C84802F065
:1018E0006DFF40214FF0402000F0E0FF00F040008D
:1018F00018B90221C34808F089F802214FF04020AE
:1019000000F0D4FF00F002042CB1BF480068401C76
:10191000BD49086014E0BC480068B0F5966F04D972
:101920000121B84808F072F807E0B7480068C828F5
:1019300003D90121B54808F069F80020B2490860D0
:10194000B3480068401CB249086074B3AE480068F0
:1019500040F2B541884205D900220421A14800F097
:10196000B5FF25E0A8480068CD2805D9FF2204214D
:101970009C4800F0ABFF1BE0A5480068012804D09C
:101980000A2808D0142811D10BE0FF220421954821
:1019900000F09CFF0BE000220421924800F096FF2B
:1019A00005E000209A49086001E009E000BF00BF9F
:1019B0009748006815284FD90020954908604BE0EA
:1019C0009448007801280BD1002091490860FF223B
:1019D0000421844800F07AFF02208E4908703BE021
:1019E0008C48007802280AD189480068B0F5967FB3
:1019F00032D9002087490870854908602CE0844866
:101A00000068142816D004DC012807D00A2821D148
:101A10000AE01E2814D0C8281CD117E0FF22042198
:101A2000704800F053FF16E0002204216D4800F0DA
:101A30004DFF10E0FF2204216A4800F047FF0AE052
:101A400000220421674800F041FF04E000207049B3
:101A5000086000E000BF00BF6F480168012007F088
:101A6000C1FF10BD1FB50020694908606B4801F037
:101A7000A5FF6B486B4908600420091D0860091F19
:101A800008600421574800F08FFFFF2204215548C9
:101A900000F01CFF6448FEF763FC0022042151485B
:101AA00000F014FF614801F089FF01F06CFAE0B921
:101AB00003F0EEF902F0D4FA064601F0FDF800203A
:101AC00001F00FF9102001F04DF901E003F0E0F909
:101AD00002214FF0402000F0E9FE00F00200002853
:101AE000F4D101F0FCF900BFFEE703F0D1F944F6B0
:101AF0002060FEF735FC02214FF0402000F0D6FEBA
:101B000000F0020090BB00220421364800F0DEFE07
:101B10004748FEF725FCFF220421324800F0D6FE9C
:101B20004348FEF71DFC002204212E4800F0CEFEA3
:101B30003F48FEF715FC02F093FA064601F0BCF8A8
:101B4000002001F0CEF8102001F00CF901E003F0C4
:101B50009FF902214FF0402000F0A8FE00F00200A3
:101B60000028F4D101F0BBF900BFFEE7FFE70FE06A
:101B7000FF2204211B4800F0A9FE2E48FEF7F0FBCF
:101B800000220421174800F0A1FE2A48FEF7E8FBD6
:101B900002214FF0402000F089FE00F002000028F2
:101BA000E6D102F05DFA064601F086F8002001F069
:101BB00098F8102001F0D6F803F011FA00201E4921
:101BC00081F80104A1F80204084690F8000420F00E
:101BD000010081F80004084630E000001E1E0100EC
:101BE0000025002000600040200000201C00002094
:101BF000004002400050004024000020001003403C
:101C000000000340A02400200C000020C02400207D
:101C1000100000201400002018000020020800F02E
:101C20004B434F4C20650040002D3101001400F063
:101C300080841E00400D03006816002090F8000408
:101C400020F0020081F800040020C74981F8000458
:101C500081F80104084690F8020420F0010081F8A0
:101C60000204084690F8020420F0020081F8020401
:101C70000020BE4981F8810181F88001BC4981F8CA
:101C8000810181F88001BB4981F8810181F88001DF
:101C9000B94981F8810181F88001B84981F80104CE
:101CA000012081F80004084690F8020420F00100A9
:101CB00081F80204084690F8020420F0020081F83E
:101CC00002040020AE490860AE490860AE48AF4942
:101CD0000860AF4908604FF4D130AE490860AE49A2
:101CE0000860AE48AE490860AE490860FF20AE49C2
:101CF0000870AE490870AE490870AE4908700020FF
:101D0000AD490870AD490870AD490870AD4908701B
:101D10002221AD4802F01EFCAC4AFF21AA4802F085
:101D2000CBFC0121A84802F03BFDAFF25342FF215A
:101D3000A54802F013FD2221A54802F00BFCA54A9C
:101D4000FF21A34802F0B8FC0121A14802F028FDC0
:101D5000AFF28B42FF219E4802F000FDFF219C481C
:101D600002F0EAFBAFF2AF414FF0402000F082FDFD
:101D7000AFF2E341984800F07DFDAFF2F94197489A
:101D800000F078FD2021964800F0FFFD042220217C
:101D9000934800F0E9FB4021914800F0F6FD042251
:101DA00040218F4800F0E0FB80218D4800F0EDFDE0
:101DB000042280218A4800F0D7FBAFF247518948BE
:101DC00002F0FDFAAFF26151874802F0F8FA04F030
:101DD00070FD4FF40031232004F082F94FF40031FC
:101DE000232004F047F84FF40031232004F091FA47
:101DF000FFF75FFC03F067FC7C4803F06EFE00BF5A
:101E0000FF220421764800F061FD012278A1794883
:101E100006F070FC044678480068401C764908606B
:101E200008460068642803D901F059F800BFFEE7AE
:101E3000002CE5D1012500206F49086000BFFF227A
:101E40000421674800F042FD2A466CA1684607F06D
:101E500037FC062269466C4806F077FC0446082CDD
:101E600001D16D1C04E064480068401C62490860B0
:101E700061480068642803D901F031F800BFFEE72B
:101E8000002CDCD100220421554800F01FFD002069
:101E90005949086000BF04F09FF85C4908605C483D
:101EA000FFF7CEFC54480068401C534908600846C0
:101EB0000068142801D901F012F85448006800287D
:101EC000E9D100220421464800F000FD00204A49E3
:101ED000086000BF04F0B6F94C4908604C48FFF7B1
:101EE000AFFC45480068401C43490860084600684C
:101EF000142801D900F0F3FF444800680028E9D114
:101F000000220421364800F0E1FC00203A49086034
:101F100000BF04F0B5FA3D4908603D48FFF790FC6A
:101F200035480068401C3449086008460068142899
:101F300001D900F0D4FF354800680028E9D100221B
:101F40000421274800F0C2FC00202B490860FFF75D
:101F5000B0FBFEF70FFA0022FF21AFF69310DFF877
:101F6000B4C000DF00BFFEE764120020540C002064
:101F7000D80D00205C0F0020E01000206C1A00201B
:101F800030000020340000200073010038000020E1
:101F90003C000020400000204400002000D101004F
:101FA000480000204C00002050000020510000207C
:101FB0005200002053000020540000205500002053
:101FC000560000205700002000000340801A060041
:101FD0000010034000350C0000500040004002405B
:101FE000006000400090004000B00040C425002088
:101FF00000000000000A002010000020446174610D
:1020000025752E62696E0000300C00200000002053
:1020100080841E000DA3000000BFFEE7704708B5D6
:10202000009000BFFEE77047704710B508F014FB42
:1020300030B1194900EB400001EB4010603810BD91
:10204000164810BD164A10B551680346082900D33A
:10205000FEE7144800EB0110491C1860516007F0BE
:102060005BFF012010BD10B5044608F0F5FA00280A
:1020700005D04FF6FF71DFF830C0206800DF10BDDB
:1020800010B5044608F0E8FA002803D0DFF81CC0B9
:10209000206800DF10BD00001841002060490020CA
:1020A0005C000020384500200DA00000299F0000A2
:1020B00010B50246F84B1B68F84C2340F84CA3427D
:1020C00009D1F84B9A4202D101F11E0301E001F15E
:1020D0001E03184611E0F04B1B68F04C2340F24CF5
:1020E000A34209D1EF4B9A4202D101F11E0301E054
:1020F00001F13E03184600E0002010BD2DE9F0413B
:1021000005460E46144631462846FFF7D1FF0746DE
:102110002146384601F0C4F9384601F01DFABDE801
:10212000F08170B504460D4629462046FFF7C0FFF2
:102130000646304601F04CFA304601F0CBF970BD4E
:10214000826801238B409A438260704701228A4053
:10215000C260826801238B401A438260704730B5A9
:10216000034632B1DC684FF001158D4004EA0500EA
:102170000FE05C6801258D4045F4803504EA0500D8
:1021800000F480342CB140F470204FF480348C4043
:10219000A04330BD01228A40C2607047026801231B
:1021A0008B401A4302607047026801238B409A43B8
:1021B0000260704730B5890044690F258D40AC43FB
:1021C00002F00F058D402C434461046A0F258D40B9
:1021D000AC4303F003058D402C4304624900C469FD
:1021E00030258D40AC4302F030058D402C43C46156
:1021F00030BD70B50C466501403528449200056835
:102200000F269640B54303F00F0696403543056010
:1022100085690F269640B543C3F3032696403543A0
:10222000856146680F25954026EA0505C3F3031628
:10223000964035434560C6690F25954026EA050559
:10224000C3F3035696403543C56103F4702575B159
:1022500041690F259540A943C3F3024595402943A1
:1022600041610569012696403543056104E0056931
:1022700001269640B543056170BD024610690123F1
:102280008B401840704701228A4002617047024625
:10229000906901238B401840704701228A40826177
:1022A000704710B503464C0140342344002002E03F
:1022B0009C6810C2401CDC6804F480740CB90828C7
:1022C000F6D310BD10B50A0C120401F00F0401235F
:1022D000A3401A43836A1A43826210BD30B5034695
:1022E0000020520801E0401C5208002AFBD16F4D2B
:1022F000685430BD30B54C01403420446B4C655CB3
:102300000424AC406243694C655C012404FA05F185
:1023100024E004680F259540AC4303F00F05954079
:102320002C43046085690F24944025EA0404C3F318
:10233000032595402C43846144680F259540AC43A8
:10234000C3F3031595402C434460012904D045682C
:1023500006249440A5434560121D491E0029D8D18A
:1023600030BDF0B54E014036304410E000254F4EF0
:10237000775C012606FA07F402E086683544641E9D
:10238000002CFAD1494E765C25FA06F640C21E00B2
:10239000A3F10103EAD1F0BD0022490801E0521C7B
:1023A00049080029FBD10263704700F5606343F8D8
:1023B0002120704730B542EA034500F5646444F8D3
:1023C000215030BD70B5044600202AB101F110053E
:1023D000012606FA05F5284313B101258D4028434F
:1023E000C4F8000D70BD82684FF480338B409A436F
:1023F0008260704782684FF480338B401A4382605A
:1024000070470146486B70474163704782688A4352
:102410008260704782680A4382607047024609B151
:10242000D06805E0506800F480330BB140F47020B0
:102430007047C2680A43C2607047826B22F0030291
:102440000A43826370470146886B00F003007047BF
:10245000416270470146486A704702684FF48073D2
:102460008B401A430260704702684FF480738B40C0
:102470009A430260704701460868C0F30040704705
:1024800010B5C1F30313C0F8C43F531E0C4663F3E9
:102490001F14C0F8C84F10BD00E00F400000FF70CF
:1024A000000005100080034000000A1064000020B6
:1024B0000246D2F8C80F19B1C0F305135B1C0B60BC
:1024C00020F47C70D2F8C43F1B07180E7047000040
:1024D00030B50246F84B1824F8480068F84D2840FB
:1024E000F84DA84201D1F84B00BF002108E053F895
:1024F0003100904203D103EBC100406830BD491C5C
:10250000A142F4D30020F9E702F001031BB1D0F897
:1025100000340B4302E0D0F800348B43C0F80034A1
:1025200002F002031BB1D0F820340B4302E0D0F8D4
:1025300020348B43C0F82034704730B50246012068
:102540008840C1B2D2F80034D2F8204403EA010036
:1025500008B1012000E0002004EA01050DB10225C8
:1025600000E00025284330BD02F001031BB1D0F884
:1025700008340B4302E0D0F808348B43C0F8083429
:1025800002F002031BB1D0F804340B4302E0D0F890
:1025900004348B43C0F8043402F004031BB1D0F8B8
:1025A0000C340B4302E0D0F80C348B43C0F80C34ED
:1025B00002F4803323B1D0F8383543F0010303E04F
:1025C000D0F8383523F00103C0F838357047F0B53E
:1025D000024601208840C1B2D2F80834D2F804443F
:1025E000D2F80C64D2F8385503EA010008B1012092
:1025F00000E0002004EA01070FB1022700E00027F5
:10260000384306EA01070FB1042700E000273843EA
:1026100005F00107384310B14FF48030F0BD0020C1
:10262000FCE7F0B5002416E00125A5400D4085B17A
:10263000D0F8C45F67000326BE40B543C0F8C45F4E
:10264000D0F8C45F6700C2F34116BE403543C0F8FE
:10265000C45F651CECB2082CE6DB02F001051DB17D
:10266000D0F800550D4302E0D0F800558D43C0F876
:10267000005502F002051DB1D0F804550D4302E0EB
:10268000D0F804558D43C0F8045502F004051DB17F
:10269000D0F808550D4302E0D0F808558D43C0F836
:1026A000085502F008051DB1D0F818550D4302E099
:1026B000D0F818558D43C0F8185502F010051DB11B
:1026C000D0F83C550D4302E0D0F83C558D43C0F89E
:1026D0003C5503F001051DB1D0F80C550D4302E047
:1026E000D0F80C558D43C0F80C5503F002051DB110
:1026F000D0F810550D4302E0D0F810558D43C0F8C6
:10270000105503F004051DB1D0F814550D4302E037
:10271000D0F814558D43C0F8145503F008051DB1C9
:10272000D0F81C550D4302E0D0F81C558D43C0F87D
:102730001C5503F400751DB1D0F844550D4302E05B
:10274000D0F844558D43C0F8445503F440751DB18D
:10275000D0F840550D4302E0D0F840558D43C0F805
:1027600040551BB9D0F828550D4302E0D0F8285544
:102770008D43C0F82855F0BDF0B514461D4601261E
:102780008E40F1B2D0F800650E400EB1012600E097
:1027900000263246D0F804650E400EB1022600E055
:1027A00000263243D0F808650E400EB1042600E042
:1027B00000263243D0F818650E400EB1082600E01E
:1027C00000263243D0F83C650E400EB1102600E0E2
:1027D00000263243D0F8C46F4F00FE4006F00306D7
:1027E00042EA46122260D0F80C650E400EB1012676
:1027F00000E000263346D0F810650E400EB10226E8
:1028000000E000263343D0F814650E400EB10426D4
:1028100000E000263343D0F81C650E400EB10826B8
:1028200000E000263343D0F840650E404EB1D0F8AA
:1028300044650E4016B14FF4007601E04FF4807607
:1028400033432B60F0BDD0F810240A43C0F81024A5
:102850007047D0F810248A43C0F81024704702460D
:1028600011B1D2F818047047D2F81404FBE7C0F88D
:102870001C14704770B504460D462046FFF728FE2D
:1028800006462946304600F00BFE304600F064FE56
:1028900070BD70B504462046FFF71AFE054628466F
:1028A00000F096FE284600F015FE70BD024600209E
:1028B00000EB81001058704738B8000000E00F406E
:1028C0000000FF7000000A10F8B80000002303EBBE
:1028D0008103C250704730B504460D460022294698
:1028E0002046FFF711FE0023012229462046FFF76C
:1028F00098FE30BD30B504460D46022229462046DA
:10290000FFF702FE0823662229462046FFF789FECC
:1029100030BD30B504460D46002229462046FFF75B
:10292000F3FD0023012229462046FFF77AFE30BD41
:1029300030B504460D46022229462046FFF7E4FD45
:102940000823662229462046FFF76BFE30BD30B5CE
:1029500004460D46022229462046FFF7D5FD0823EE
:10296000662229462046FFF75CFE30BD30B504469E
:102970000D46022229462046FFF7C6FD082366229F
:1029800029462046FFF74DFE30BD30B504460D46C2
:10299000002229462046FFF7B7FD082301222946D9
:1029A0002046FFF73EFE30BD30B504460D460823F5
:1029B000012229462046FFF734FE012229462046FF
:1029C000FFF7A2FD30BD30B504460D4609230122B4
:1029D00029462046FFF725FE012229462046FFF71B
:1029E00093FD30BD30B504460D46022229462046EF
:1029F000FFF78AFD0923012229462046FFF711FE31
:102A000030BD30B504460D46022229462046FFF768
:102A10007BFD0823012229462046FFF702FE30BD38
:102A200030B504460D46022229462046FFF76CFDCC
:102A30000823662229462046FFF7F3FD30BD30B556
:102A400004460D46022229462046FFF75DFD082375
:102A5000662229462046FFF7E4FD30BD30B5044626
:102A60000D46002229462046FFF74EFD0023012295
:102A700029462046FFF7D5FD30BD30B504460D464A
:102A8000022229462046FFF73FFD0823012229465E
:102A90002046FFF7C6FD30BD30B504460D46022284
:102AA00029462046FFF730FD08230122294620460B
:102AB000FFF7B7FD30BD30B504460D46022229466A
:102AC0002046FFF721FD0A23012229462046FFF771
:102AD000A8FD30BD30B504460D46022229462046E9
:102AE000FFF712FD0823012229462046FFF799FD32
:102AF00030BD30B504460D46022229462046FFF778
:102B000003FD0823012229462046FFF78AFD30BD38
:102B100030B504460D46022229462046FFF7F4FC54
:102B20000823012229462046FFF77BFD30BD30B542
:102B300004460D46002229462046FFF7E5FC002307
:102B4000012229462046FFF76CFD30BD30B5044612
:102B50000D46022229462046FFF7D6FC0823012213
:102B600029462046FFF75DFD30BD30B504460D46D1
:102B7000002229462046FFF7C7FC4FF402730122CA
:102B800029462046FFF74DFD30BD30B504460D46C1
:102B9000002229462046FFF7B7FC4FF48473012238
:102BA00029462046FFF73DFD30BD30B504460D46B1
:102BB000022229462046FFF7A7FC082301222946C6
:102BC0002046FFF72EFD30BD30B504460D460222EB
:102BD00029462046FFF798FC0A2301222946204671
:102BE000FFF71FFD30BD30B504460D4602222946D1
:102BF0002046FFF789FC0823662229462046FFF776
:102C000010FD30BD30B504460D460222294620464F
:102C1000FFF77AFC0823012229462046FFF701FD31
:102C200030BD014601F5A960704710B50146C1F3FA
:102C300007401B4BDB6E01248440234033B101234A
:102C400003EB4003174C54F8230003E04300154CFA
:102C500054F82300C1F30722D0F82C350F249440F8
:102C6000A34301F00F0494402343C0F82C3510BD5A
:102C7000D0F834250A43C0F834257047D0F83425FD
:102C80008A43C0F834257047D0F830250A43C0F88D
:102C900030257047D0F830258A43C0F8302570477A
:102CA00000E00F40B8B9000000BFFE48006900F026
:102CB00000400028F9D0704710B50446F948006973
:102CC00040F04000F7490861FFF7EEFF10BD10B576
:102CD000F448006920F04000F2490861FFF7E4FF82
:102CE00010BD70B50446EF48056925F4302504F49D
:102CF0003020054304F4002008B145F04005E948C0
:102D00000561FFF7D1FFE8480068E8490840E84955
:102D1000884203D104F00300E649086070BD10B595
:102D2000E048006940F00100DE490861FFF7BCFFA0
:102D300010BD10B5DB48006920F00100D9490861D9
:102D4000FFF7B2FF10BD10B5D648006940F48060AF
:102D5000D4490861FFF7A8FF10BDD248006900F40C
:102D60008060704710B50446CE48006920F40670B4
:102D70002043CC490861FFF797FFCB480068CB4957
:102D80000840CB49884221D104F0101060B1C548F9
:102D9000006900F4807038B9C248006940F480705E
:102DA000C0490861FFF780FF012040EA1440BD4997
:102DB000C86200BFBB48C06A00F000400028F9D0DC
:102DC000B848C06A20F00100B649C86210BDB648D4
:102DD0000068B64A1040B64A90420BD1B14801692A
:102DE00001F40670AF4AD26A4FF0101303EA0242B0
:102DF00010437047AB48006900F40670F9E710B55E
:102E00000446A848006946F2A00188432043A5492A
:102E10000861FFF749FF10BDA248006946F2A00112
:102E20000840704710B50446A348A4490860FFF75E
:102E30003BFF9C48C460FFF737FF00209949C1F869
:102E40006003FFF731FF10BD96480068704770B50A
:102E500005460C4693484460FFF726FF70BD0146C7
:102E600090484068704770B505460C4620048D496F
:102E70008862FFF719FF70BD01468A48806A000C1E
:102E800070478848806AC0F30E00704710B504464A
:102E900084484462FFF708FF10BD8248406A7047CB
:102EA00070B505460E46002408E055F824007D4A1A
:102EB00002EB84010863FFF7F7FE641CB442F4D30D
:102EC00070BD10B50246002006E0764C04EB80038E
:102ED0001B6B42F82030401C8842F6D310BD10B561
:102EE0007048006940F002006E490861FFF7DCFE9F
:102EF00010BD10B504466B484069204369494861DC
:102F0000FFF7D2FE10BD10B5044666484069A043E5
:102F100064494861FFF7C8FE10BD63490968634A08
:102F20001140634A914201D1392000E03B207047B3
:102F300070B50446FFF7F1FF05462146284600F02C
:102F4000AFFA284600F008FB70BD10B5FFF7E5FFAB
:102F50000446204600F03CFB204600F0BBFA10BDC2
:102F60000146012902D14F48C06970474D48806928
:102F7000FBE710B504464B48006A20434949086204
:102F8000FFF792FE10BD47480069C0F380107047FC
:102F900010B5444800694A49084342490861FFF7AF
:102FA00083FE10BD10B53F4800694549C94308403C
:102FB0003C490861FFF778FE10BD3A480069404976
:102FC0000840884201D1012070470020FCE710B57D
:102FD00004463A4860380460FFF766FE10BD2DE9EC
:102FE000F04106460C464FF47C51606801EA00202F
:102FF000217801F03F0140EA01053048603800685F
:1030000000F0040060B1208945EA00452B483038C3
:10301000864219D1A068FF2816D125F4800513E057
:10302000A068FF2802D145F4F8150DE0A0680C282F
:1030300007DB20890C384FF4800141EA004005434A
:1030400002E0208945EA00451C48503886420CD1F0
:10305000D4E90310401C41EA0020217E40EA0161CE
:10306000A08A643841EA004705E0E068FF2801D102
:10307000002700E0E76811485038864204D10E4826
:103080000E490860FFF710FE0C48503886421CD1EC
:103090000A4840380560FFF707FE0248C0F824736D
:1030A00010E0000000C00F4000E00F400000FF7083
:1030B00000000A10C8CF0F40549535A360C30F40DD
:1030C00000010040FFF7F0FD08E0E9480560FFF768
:1030D000EBFDE848C0F83473FFF7E6FDE44820381C
:1030E000864205D10020E24930310860FFF7DCFD5F
:1030F000BDE8F08110B504462146DD482038FFF7D1
:103100006EFF10BD014600BFD9481C38026802F0AE
:1031100000400028F8D000BFD5482038036803F0ED
:1031200000400028F8D0D2481C380068904202D0F5
:103130004FF0FF307047C3F30520486003F03F00B5
:103140000860C2F30320401E086102F01F00C8603F
:10315000C2F302608861C2F3064064304861C3F381
:1031600004408860C2483038006800F0040028B984
:1031700003F4800010B188680C3088600020D9E723
:1031800070B505460C462146B948FFF728FF70BDCB
:1031900010B50346B64C241D2268B64CD4F8300353
:1031A00000F47C54B4F57C5F02D1FF244C6002E053
:1031B000C0F305244C6000F03F043F2C02D1FF24F3
:1031C0000C6002E000F03F040C6000F4F814B4F569
:1031D000F81F02D1FF248C6002E0C0F304448C602D
:1031E00002F01F0414B9FF24CC6002E002F01F04B7
:1031F000CC609F4C303C246804F004042CB900F4EB
:10320000800414B18C680C348C6010BD70B5044619
:103210009748D030006820F4407597489449303181
:103220000860FFF741FD45EA04009149D03108608C
:10323000FFF73AFD00208F49C1F86003FFF734FD26
:1032400070BD10B58C488A4930310860FFF72CFDFD
:103250008748D030006840F001008549D0310860CF
:10326000FFF722FD00208349C1F86003FFF71CFD32
:1032700010BD10B580487E4930310860FFF714FD5D
:103280007B48D030006820F001007949D0310860D7
:10329000FFF70AFD00207749C1F86003FFF704FD3E
:1032A00010BD2DE9F04104460E467148E030056836
:1032B000E1000F20884025EA000746F00100E10008
:1032C0008840384305436C48694930310860FFF74E
:1032D000EBFC6748E0300560FFF7E6FC002065493D
:1032E000C1F86003FFF7E0FCBDE8F08110B50446CB
:1032F00061485F4930310860FFF7D6FC5C48E03038
:103300000068E2006FF00101914008405849E03147
:103310000860FFF7C9FC00205649C1F86003FFF7B9
:10332000C3FC10BD10B55448514930310860FFF757
:10333000BBFC4F48D030006840F010004C49D03101
:103340000860FFF7B1FC00204A49C1F86003FFF7AD
:10335000ABFC10BD10B5FFF7A7FC4548D0300068A6
:1033600040F010004249D031086010BD10B542480D
:103370003F4930310860FFF797FC10BD10B5FFF7EB
:1033800093FC00203A4930310860FFF78DFC10BDF6
:10339000374AD432116801F0030001F002020AB189
:1033A000002200E00822104301F001020AB10022CD
:1033B00000E00422104301F00C0240EAC20001F0D8
:1033C0000C020AB940F01000704730B503461446AD
:1033D000042000EBC300274D2844D0F8E0240AB9AC
:1033E000002030BD2260234D05EBC300D0F8E0047F
:1033F00008601F483038006800F00500052813D128
:103400001B482038006800F4800068B1086800F4A8
:10341000F83000F5404000F4F832086820F4F83045
:1034200008600868104308600120DAE710B5124808
:103430000F4930310860FFF737FC0D48D430006881
:1034400040F001000A49D4310860FFF72DFC00204C
:103450000849C1F86003FFF727FC10BD00B5FFF76E
:1034600097FF00F00C0008B1012000BD0020FCE730
:1034700030C30F4000C00F40549535A300BFFEE796
:1034800010B5FCF760FF08B1012010BD0020FCE77B
:1034900010B5FCF751FF08B1012010BD0020FCE77A
:1034A00030B50246B64C2468B64DAC420ED0B44C92
:1034B0002368002005E053F82040B24D45F8204035
:1034C000401C9B28F7D3AF4CAD4D2C60AD4C44F85D
:1034D000221030BDAC49AB4A42F820107047AB49CE
:1034E00051F82010AA4A1143A54A121D11607047D5
:1034F000A34A121D126802F4E061002006E0A34A0C
:1035000052F820208A4200D102E0401C0828F6D35D
:1035100000BF704710B50A4683089E4C54F823300C
:1035200019688307DC0EFF23A34099438307DB0E52
:1035300002FA03F319438308964C54F823301960B8
:1035400010BD01468808934A52F8200000688A0797
:10355000D20ED040C0B27047042808D188491C312F
:10356000096841F48031864A1C3211602FE0052839
:1035700008D183491C31096841F40031804A1C326A
:10358000116024E0062808D17D491C31096841F406
:1035900080217B4A1C32116019E00F2808D14FF0BE
:1035A000E021096941F002014FF0E02211610EE0D3
:1035B00010280CD3A0F1100101F01F02012191404D
:1035C000A0F110025209744B53F822201160704789
:1035D000042808D16A491C31096821F48031684AFD
:1035E0001C3211602FE0052808D165491C3109689B
:1035F00021F40031624A1C32116024E0062808D10F
:103600005F491C31096821F480215D4A1C32116038
:1036100019E00F2808D14FF0E021096921F00201DB
:103620004FF0E02211610EE010280CD3A0F1100140
:1036300001F01F0201219140A0F110025209574BE5
:1036400053F822201160704710B50146002004296C
:1036500005D14B4A1C32126802F4803028E005295B
:1036600005D1474A1C32126802F4003020E00629D6
:1036700005D1434A1C32126802F4802018E00F2959
:1036800005D14FF0E022126902F0020010E010298B
:103690000ED3A1F1100252093F4B53F822201268B9
:1036A000A1F1100303F01F040123A34002EA030069
:1036B00010BD022808D13249091F096841F00041B4
:1036C0002F4A121F116024E00E2808D12C49091F2F
:1036D000096841F080512A4A121F116019E00F2831
:1036E00008D12749091F096841F08061244A121F47
:1036F00011600EE010280CD3A0F1100101F01F02A0
:1037000001219140A0F110025209254B53F82220CB
:10371000116070470E2808D11949091F096841F046
:103720000061174A121F116019E00F2808D11449CF
:10373000091F096841F00071114A121F11600EE063
:1037400010280CD3A0F1100101F01F0201219140BB
:10375000A0F110025209134B53F822201160704758
:1037600010B504462046FCF7F4FD10BD10B5FCF77B
:10377000F3FD10BDA0F110010B4A1160704700006D
:1037800008ED00E0000400207D34000048BA00008D
:103790000000FA0568BA000004BB000018BB000076
:1037A0002CBB000040BB000000EF00E002460021FF
:1037B0000AE0F74850F83100904204D3F44800EB97
:1037C000C10040687047491C0629F2D30020F9E780
:1037D000F0B50146DFF8BCC3DCF860C1CCF3892347
:1037E000DFF8B0C3DCF860C1CCF30905DFF8A4C38F
:1037F000DCF864C1CCF3042C0CF10106DFF894C3AF
:10380000DCF864C10CF01F0C0CF10107B1FBF7F1FF
:103810005A09A3EB421401FB05F001FB02FC00EB8B
:103820005C1001FB04FC00EB9C20B0FBF6F0F0BD4B
:10383000D8483C380068401C00027047D5480068F2
:10384000D5490840D549884206D1D248806800044D
:10385000400900F500607047CE484038006880B2EB
:10386000401CC002F7E7CB480068CB490840CC4970
:10387000884209D1C74840380068C0F302400A3086
:10388000012101FA00F070474FF48060FBE7014628
:10389000C1F30720C34A104400F0704040F00070AC
:1038A000C1F30722BF4B1A44C2F3130240EA42108D
:1038B000CAB240EA8200006808B1012070470020C7
:1038C000FCE70146C1F30720B74A104400F07040FE
:1038D00040F00070C1F30722B34B1A44C2F3130245
:1038E00040EA4210CAB240EA8200006808B10120F2
:1038F00070470020FCE710B50121C0F30722AB4B55
:103900001A4402F0704242F00072C0F30723A74C41
:103910002344C3F3130342EA4312C3B242EA8302CD
:10392000116010BD10B50021C0F307229F4B1A444F
:1039300002F0704242F00072C0F307239B4C234414
:10394000C3F3130342EA4312C3B242EA8302116093
:1039500010BD18B50121C0F30722954B1A4402F09F
:10396000704242F00072C0F30723914C2344C3F32A
:10397000130342EA4312C3B242EA830211600021F8
:10398000009102E00099491C009100991029F9D397
:103990000021C0F30722864B1A4402F0704242F025
:1039A0000072C0F30723824C2344C3F3130342EA9B
:1039B0004312C3B242EA8302116018BD10B501215F
:1039C000C0F307227B4B1A4402F0704242F00072AF
:1039D000C0F30723774C2344C3F3130342EA431293
:1039E000C3B242EA8302116010BD10B50021C0F3DA
:1039F0000722704B1A4402F0704242F00072C0F38A
:103A000007236C4C2344C3F3130342EA4312C3B2AB
:103A100042EA8302116010BD10B50121C0F30722F4
:103A2000654B1A4402F0704242F00072C0F3072363
:103A3000614C2344C3F3130342EA4312C3B242EA84
:103A40008302116010BD10B50021C0F307225A4B4C
:103A50001A4402F0704242F00072C0F30723564C41
:103A60002344C3F3130342EA4312C3B242EA83027C
:103A7000116010BD10B50121C0F307224F4B1A444D
:103A800002F0704242F00072C0F307234B4C234413
:103A9000C3F3130342EA4312C3B242EA8302116042
:103AA00010BD10B50021C0F30722444B1A4402F0A8
:103AB000704242F00072C0F30723404C2344C3F32A
:103AC000130342EA4312C3B242EA8302116010BDFB
:103AD00030490968304A1140304A91420ED130B124
:103AE0002C49096E41F000612A4A116618E0294903
:103AF000096E21F00061274A116611E040B12549A5
:103B0000B031096841F00051224AC2F8B01007E014
:103B10002049B031096821F000511E4AC2F8B010A6
:103B2000704710B5044621462C20FFF7B9FC2C2025
:103B3000FFF712FD10BD10B52C20FFF749FD2C201A
:103B4000FFF7C8FC10BD1349496D0143114A516587
:103B500070471049496D81430E4A516570470D49C0
:103B600088657047014611B10A48806D7047094861
:103B7000006DFBE712490860704711480068704704
:103B80000F490831086070470D48083000687047D9
:103B9000E0BC000000E00F400000FF7000000510D6
:103BA00000000A1000E30F4000EA0F4000E90F4058
:103BB00000E50F4000E60F4000E70F4000E80F402F
:103BC000B4E10F40FB4908607047FA49091D0860DD
:103BD0007047F948F949086000BFFEE710B5FCF7E7
:103BE000B6FB10BD10B5F548001D006840F004009C
:103BF000F249091D0860FCF7AAFBF048001D0068A7
:103C000020F00400ED49091D086010BDEC48C06DAE
:103C10007047EB49C96D8143E94AD1657047E8496E
:103C2000C86770470146E748084050B101F00040BE
:103C3000E04A383A1060E34881380840E04AC2F868
:103C40005001DC483838016001F4007088B100BFD1
:103C5000D8483438006800F440700028F8D0D548BF
:103C60003438006800F44070B0F5807F01D0002047
:103C700070470120FCE7CF49503108607047CD48BC
:103C80005030006870472DE9FE4F05468A46CC4803
:103C90000068CD490840CD49884202D10020BDE8E6
:103CA000FE8FC5F3841605F03800102805D1DFF823
:103CB0002093002700BF152633E005F03800302898
:103CC00004D147F230594FF400172AE005F03800CC
:103CD000382804D14FF400494FF4800721E005F063
:103CE0003800D8B91A2E01DC092E01DA0020D6E7F7
:103CF000B84850F826904FF4401747F04077B04846
:103D0000C06F20F01C000190072E03DB019840F0EB
:103D100010000190AA490198C86702E04FF000091D
:103D2000002705F4605000287ED105F0380028B146
:103D300005F03800102801D00020B0E7C5F3026B71
:103D4000A548FFF733FD9E49C03108609C48D0F874
:103D5000B000A24900EA010444F000449848B030A1
:103D60000460093E0BEBCB009D4901EB001000EB1A
:103D7000C60040689249D1F8641188420DD10BEB1E
:103D8000CB00974901EB001050F8360040F40000DA
:103D9000884928390968884202D00120009001E052
:103DA00000200090009808B38548B0300068384380
:103DB0008349C1F8B0000BEBCB00894901EB00103F
:103DC00000EBC60040687B49243908600BEBCB0050
:103DD000834901EB001050F836007649283909680C
:103DE00001F4000108437349283908607D4850F800
:103DF0002B005044401EB0FBFAF84846FFF7E8FCA1
:103E0000B0FBF8FA5046FFF7D1FC6D49C0310860AD
:103E10006B48D0F8600100F4000068B100980128F8
:103E200012D16748B03000E034E0006840F08040D4
:103E30006349C1F8B00007E05E482838006840F4E4
:103E400000005F49C1F860014FF40040029009E0B2
:103E500058482038006800F0010000B105E00298E1
:103E6000401E029002980028F2DC00BF029870B158
:103E70005348B0300468A8F10100384340F0805046
:103E8000044344F000444E48C0F8B0403CE04FF0DA
:103E9000000A39E04E48FFF789FC4949C031086003
:103EA0004748D0F8600120F400004549C1F860019E
:103EB0000846D0F8B0404C48044044F00044404824
:103EC000B0300460BAF1000F02D14FF000080AE0F0
:103ED000B9FBFAF8B8F1000F01D0A8F1010808F118
:103EE0000100B9FBF0FA5046FFF760FC3449C031DD
:103EF00008603348D0F8B04047EA8820044344F0D3
:103F000000442F48B03004605046C8E62DE9F04127
:103F100006462B48046E056F44F4006424F48004C4
:103F200045F400650466056704F00100D8B106F0A9
:103F30000100C0B966F0010004404FF480702049D0
:103F40008865084604664FF4002702E07F1E07B923
:103F500005E01B48006D00F480700028F6D000BF1B
:103F60000FB9BDE8F08124F4FE6406F4FE6004435A
:103F70001E4805401D49A13106EA0100054306F02F
:103F8000080045EAC0050E480466056724F400549D
:103F900006F40050044325F4005506F40050054390
:103FA00040200749886505F0004008B308460567CA
:103FB000046620E088E10F400400FA050CED00E003
:103FC00000E00F40000100800000FF7000000510BD
:103FD0000024F40054BB000040787D0100FC0FE099
:103FE000C0BB000010BD0000FF0300EF8FFFFF7F8C
:103FF000B74804660567B7480440C14306EA0100B4
:10400000044325F0FC5506F0FC50054306F08040C3
:1040100040B144F4800425F48005AF4906EA01006C
:10402000054301E025F0804506F4006080B94FF4B7
:10403000004706E0A948006800F0010000B102E076
:104040007F1E002FF6D100BF24F4006425F4006524
:104050009F48046605671020FCF782F900BF80E7DF
:10406000F0B59B48036E026F02F0004010B102F001
:10407000700001E003F03000202811D003DC38B1DB
:10408000102815D10AE030280CD0702810D10CE08F
:104090009348C3F3841750F827100BE0914909E0C7
:1040A000914907E047F2305104E04FF4004101E04C
:1040B0000020F0BD00BF4FF0FF3402F0004010B10F
:1040C00002F4006028B102F00040A0BB03F40060DD
:1040D00088BB8248083806687D48D0F8645105F0EE
:1040E0001F00401CC5F304277F1C10FB07F0400095
:1040F000B1FBF0F1C6F309004843C6F389274F43EB
:1041000000EB972143F480037148006900F470408C
:10411000B0F5804F16D007DC80B1B0F5005F0BD052
:10412000B0F5405F14D10BE0B0F5E04F0CD0B0F526
:10413000104F0DD10AE00DE06C4C0AE06C4C08E029
:104140006C4C06E06C4C04E06C4C02E06C4C00E003
:1041500000BF00BF03F4800018B302F00040D8B1E4
:1041600002F0804090B102F0004010B102F4006013
:1041700028B102F0004048B903F4006030B94F00A4
:10418000C2F38650401CB7FBF0F10AE0C2F3C55001
:10419000401CB1FBF0F104E0C3F3C350401CB1FB81
:1041A000F0F18C4200D22146084682E74B4924397F
:1041B0000860704710B50246454B1B68514C2340C0
:1041C000514CA34208D121F0FC54531E44EAC3537E
:1041D000424C243C236023E0501E01F0700333B1B5
:1041E000102B0ED0302B05D0702B09D105E040F4F8
:1041F000401007E040F4001004E040F4800001E0CB
:1042000000BF00BF00BF01F002030BB140F000404F
:1042100001F080430BB140F08040304B243B1860EC
:1042200010BD2B49096E21F4F0110143284A116693
:1042300070472748006E00F4801008B900207047CE
:104240002348006E00F4F010F9E72149C96E00F030
:104250000F0301229A4011431D4AD16670471C4941
:10426000C96E00F00F0301229A409143184AD166AB
:1042700070471748006F20F4804015490867704761
:104280001348006F40F48040114908677047104997
:10429000886370470E48006E70470D49096E0143F0
:1042A0000B4A116670470A48406E70470849496ECC
:1042B0008143074A516670474A1ED2B20243074BF8
:1042C000203B1A607047054930390860704700008C
:1042D00000E00F40FEFF3FF80000404068E10F4063
:1042E00054BB00000024F40000093D0000B4C404E5
:1042F000AA40F90380F0FA02005A620240787D0178
:10430000002D31010000FF700000051030B502469D
:10431000734B042473480068734D2840734DA842C2
:1043200001D1734B00BF002108E053F831009042E7
:1043300003D103EBC100406830BD491CA142F4D356
:104340000020F9E72DE9F04F0E46DDE909C8022B00
:1043500002D14FF0080A01E04FF0000A544613B9A9
:104360004FF0000A01E04FF0040A4AEA04044460F6
:10437000B6FBFCF7002100BF891CB7FBF1FAAAF1DC
:104380000105FF2DF8D801614FEA827A4FEA1A69D8
:1043900002F0300249EA052A4AEA020AA8F1010BB2
:1043A0004AEA0B040460BDE8F08F416841F0020165
:1043B00041607047416821F002014160704770B56B
:1043C00004460D462046FFF7A1FF06462946304623
:1043D000FFF766F83046FFF7BFF870BD70B50446CA
:1043E0002046FFF793FF05462846FFF7F1F82846D9
:1043F000FFF770F870BD42690A4342617047426935
:104400008A4342617047024609B1D069704790699A
:10441000FCE70162704700BFC26802F00202002A96
:10442000FAD0816070470246D06800F0020010B1F7
:104430009160012070470020FCE700BFC26802F0D5
:104440000402002AFAD082680A6070470246D068E7
:1044500000F0040018B19068086001207047002047
:10446000FCE7426A0A4342627047426A8A434262F8
:1044700070470146C868C0F300107047C0F8C81FF5
:1044800070470146D1F8C80F7047426822F4E072C5
:104490000A434260704700BFC26802F00202002A6D
:1044A000FAD0426842F4006242608160704702467E
:1044B000D06800F0020030B1506840F400605060F5
:1044C0009160012070470020FCE7416841F4806161
:1044D00041607047416821F480614160704700008D
:1044E00018BD000000E00F400000FF7000000A103F
:1044F00038BD0000F0B503460C46C24D0C26C2483C
:104500000068C24F3840C24FB84201D1C14D0826A1
:1045100000210DE055F83100984208D105EBC100AB
:104520004268B4F57F4F00D1521C1046F0BD491CC3
:10453000B142EFD30020F9E7C26840F201130B400B
:104540001A43C2607047C26840F201130B409A439D
:10455000C2607047C26840F201139A43C2600A0EFB
:104560000260A94A1268A94B1A40A94B9A4211D17C
:10457000CAB201F4702342EA131242F4007242609C
:1045800001F47002C1F3072343EA122242F40072DD
:10459000826008E0CAB242F400724260C1F30722AE
:1045A00042F400728260704744F24003194012B135
:1045B000C3680B4301E0C3688B43C360704710B509
:1045C000914B1B68914C2340914CA3420AD140F27D
:1045D00001130B4012B1046F1C4301E0046F9C43B4
:1045E000046700BF42F22003194012B1C3680B43B5
:1045F00001E0C3688B43C36010BD10B540F60C43A7
:104600001940C3688B4302EA01042343C36010BD11
:1046100040F20223194012B1C3680B4301E0C368A2
:104620008B43C3607047CBB24BB122B1436843F0B8
:104630004003436003E0436823F04003436001F418
:104640007F434BB122B1836843F04003836003E0B2
:10465000836823F0400383607047C16841F0100114
:10466000C1607047C16821F01001C1607047C0F897
:10467000C81F70470146D1F8C80F7047CBB203B1CD
:10468000826301F47F4303B1C26370470246FF298E
:1046900001D1906B7047D06BFCE7CBB203B10264E1
:1046A00001F47F4303B1426470470246FF2901D100
:1046B000106C7047506CFCE7CBB203B1826201F41E
:1046C0007F4303B1C26270470246FF2901D1906A5D
:1046D0007047D06AFCE7C3628262704730B5034618
:1046E00000BFDA6A9C6ADD6AAA42FAD1002001465C
:1046F0002043114330BD0246FF2901D1906C704721
:10470000D06CFCE730B5034600BFDA6C9C6CDD6C06
:10471000AA42FAD1002001462043114330BDCBB25A
:1047200003B1026301F47F4303B142637047024661
:10473000FF2901D1106B7047506BFCE743630263A4
:10474000704730B5034600BF5A6B1C6B5D6BAA42C5
:10475000FAD1002001462043114330BD2DE9F0413C
:1047600005460E46144631462846FFF7C3FE074667
:1047700021463846FEF794FE3846FEF7EDFEBDE8CA
:10478000F08170B504460D4629462046FFF7B2FE7B
:1047900006463046FEF71CFF3046FEF79BFE70BD16
:1047A00082690A438261704782698A4382617047E5
:1047B000024609B1106A7047D069FCE74162704750
:1047C00001617047016770470146086F7047C16615
:1047D00070470146C86E704710B50B46DCB2FF2C1F
:1047E00004D1446824F4A0611143416003F47F4480
:1047F000B4F57F4F04D1846824F4A0611143816033
:1048000010BD000058BD000000E00F400000FF7028
:1048100000000A10B8BD000030B50246CB4B08249A
:10482000CB480068CB4D2840CB4DA84201D1CB4BA3
:1048300000BF002108E053F83100904203D103EBA0
:10484000C100406830BD491CA142F4D30020F9E703
:10485000C26A22F086020A43C26270470146C86AF1
:1048600000F08600704741EA02034363704710B5C9
:10487000436B03F007040C6003F03804146010BDB0
:10488000C16A41F01001C162016B40F20132114373
:104890000163704700BF816901F008010029FAD166
:1048A000C16A21F01001C162016B40F201329143F3
:1048B00001637047F0B504460E4615461F46204674
:1048C000FFF7E8FFB6EB051F05D2206B40F0200094
:1048D00020636D0803E0206B20F020002063F000CF
:1048E000B0FBF5F0401C43089809606203F03F00FC
:1048F000A062E7620020A0612046FFF7C1FFF0BD83
:10490000F0B5446A856A8E00402707FB0457B6FB62
:10491000F7F61660066B06F0200616B116687600EC
:104920001660C66A06F0EE061E60F0BDC16A41F070
:104930001001C1627047C16A21F01001C162704765
:1049400021B1026B42F00602026303E0026B42F007
:10495000020202637047016B21F006010163704798
:10496000C16A21F0E60141F06E01C162026B42F0C2
:10497000080202637047016B21F008010163704770
:10498000026B01F440631A4302637047026B01F447
:1049900040639A43026370470146086B00F440602D
:1049A00070470146886940F2071210407047026B59
:1049B00022F440420A43026370470146086B00F448
:1049C00040407047026B22F010020A4302637047B6
:1049D0000146086B00F0100070470146886901220B
:1049E00022EA1010704701468869012222EA50101D
:1049F00070470146886900F0100008B908687047E0
:104A00004FF0FF30FBE7014600BF886900F010005F
:104A10000028FAD1086870470246906900F020002B
:104A200010B91160012070470020FCE700BF8269C7
:104A300002F02002002AFAD10160704719B1C26A5F
:104A400042F0010202E0C26A22F00102C262704733
:104A500001468869C0F3C000704770B504460D4632
:104A60002046FFF7D9FE064629463046FEF718FDD8
:104A70003046FEF771FD70BD70B504462046FFF765
:104A8000CBFE05462846FEF7A3FD2846FEF722FD8D
:104A900070BD826B0A4382637047826B8A43826374
:104AA0007047024609B1106C7047D06BFCE7416457
:104AB0007047826C0A4382647047826C8A438264C6
:104AC00070470146486800F00F00704700214160C0
:104AD0007047C0F8C81F70470146D1F8C80F70472B
:104AE000D0F8A41041F40041C0F8A4107047D0F8E9
:104AF000A41021F40041C0F8A4107047C0F8A4101D
:104B0000C0F8A82070470A4600BF836903F08803F5
:104B1000802BFAD1C16A21F0040343F08203C362FF
:104B2000026000BF836903F08803802BFAD1C16261
:104B3000704710B504460B4600BF19782046FFF7B2
:104B400075FF5B1C18780028F7D110BDF8BD000078
:104B500000E00F400000FF7000000A1038BE0000A7
:104B60000120C749486070470020C5494860704728
:104B7000C348C06C70470120C149C864704700F049
:104B80001F0201219140BE4A9162704700F01F024E
:104B900001219140BA4AD16270470146B848806A03
:104BA00001F01F0301229A40104008B10120704714
:104BB0000020FCE7B24988607047B14880687047C0
:104BC000AF48C068704700F01F0201219140AC4A15
:104BD0005161704700F01F0001F001021AB101227B
:104BE0008240A74B9A6101F002021AB10122824071
:104BF000A34B1A6301F004021AB101228240A04BB8
:104C00009A6301F008021AB1012282409C4B1A6299
:104C1000704700F01F0001F001021AB1012282402A
:104C2000974BDA6101F002021AB101228240944BE3
:104C30005A6301F004021AB101228240904BDA63F8
:104C400001F008021AB1012282408D4B5A6270476E
:104C50000146002001F01F01894A926901238B401F
:104C60001A400AB140F00100854A126B01238B40C3
:104C70001A400AB140F00200814A936B01228A4037
:104C800013400BB140F004007D4A136A01228A40B0
:104C900013400BB140F00800704710B500F03F0022
:104CA000774B9A6802EB00139B68764C23400B43CA
:104CB00002EB0014A36010BD2DE9F04316461F4619
:104CC000079D00F03F00DFF8B881D8F8083003EB0B
:104CD0000018D8F8088043F6F77928EA090400F0AC
:104CE0002008B8F1000F05D0042901D0062901D110
:104CF00041F00101A5F1010841EA081848EA04045D
:104D000004F04062B2F1406F06D0920E05FA02FC48
:104D100006EB0C08A8F1010603EB0018C8F80060C8
:104D200004F04042B2F1404F11D0042901D00629CD
:104D300006D140F0200803EB081808F10C0706E044
:104D4000920F05FA02FC07EB0C08A8F1010703EB30
:104D50000018C8F8047003EB0018C8F80840BDE854
:104D6000F083F0B5144600F01F00454EB2682546AA
:104D70004E1E05EB06160C3602EB00173E6040F0A7
:104D8000200602EB06160C3602EB00177E600126A9
:104D9000C6EB81063C4F47EA06160BB1062700E03A
:104DA00004273E4302EB0017BE6001268640344FC5
:104DB0007E63F0BD10B5014601F03F0130488368C5
:104DC00003EB0110806843F6F77400EA04020AB9A5
:104DD000002010BD1009401CFBE7014601F03F0117
:104DE000274B9A6802EB01139B6803F0070020F041
:104DF0000103042B03D020F00103062B01D120F086
:104E00000100704770B504460D4629462046FEF75E
:104E100047FB2046FEF7A0FB70BD10B504462046B8
:104E2000FEF7D6FB2046FEF755FB10BD174800687D
:104E3000704716490860704730B5C3B2000CDC08F3
:104E4000124D0C3505EB84015C07E20E0C680F2552
:104E50009540AC4300FA02F52C430C6030BD0B4981
:104E6000091F09680143094A121F11607047074969
:104E7000091F09688143054A121F1160704700002D
:104E800000F00F40F73FFC00008000AA04F50F403F
:104E900008B5FE48FFF73AF8FD48FEF78FFDFC48DD
:104EA000801EFEF78BFDFA48C01EFEF787FDF8480E
:104EB000401EFEF783FDF648001FFEF77FFDF54814
:104EC000FEF77CFD40214FF04020FDF75EFD0A23F8
:104ED000012240214FF04020FDF7A3FB1021EE48B6
:104EE000FDF753FD0A2301221021EB48FDF799FB42
:104EF0000421E948FDF758FD00220421E648FDF7AA
:104F0000E5FC0221E548FDF74FFD00220221E348C0
:104F1000FDF7DCFC02214FF04020FDF736FD0A23AF
:104F2000012202214FF04020FDF77BFB0821DC48E5
:104F3000FDF7D1FC00231A461946DA48FDF73AF985
:104F4000602300221146D748FDF753F90021D548C8
:104F5000FDF724F934E0FF220221D048FDF7B6FC2A
:104F60004021CD48FDF7A2FC00F0100018BBFF2245
:104F70000421C948FDF7AAFCCB48FBF7F1F9002250
:104F80000421C548FDF7A2FCC748FBF7E9F9002159
:104F9000C448FDF797F900BF00221146C148FDF74C
:104FA000DEF80028F8D06A460021BE48FDF779F9FE
:104FB0000098009004E0FF220421B748FDF786FC2A
:104FC00040214FF04020FDF771FC00F04000002828
:104FD000C1D000220221B148FDF778FC08BDFEB522
:104FE000B248FEF793FFAA48FEF7E8FCA848801EE7
:104FF000FEF7E4FCA648401CFEF7E0FCA448401E77
:10500000FEF7DCFCA248C01EFEF7D8FCA048001F3B
:10501000FEF7D4FCA648FEF7D1FCA548801EFEF79B
:10502000CDFCA348401EFEF7C9FCA148401CFEF77A
:10503000C5FCA048FEF7C2FC9E48401CFEF7BEFC23
:105040009D48FEF7BBFC9D48FEF7B8FC9148FEF773
:10505000B5FC40214FF04020FDF797FC0A230122C8
:1050600040214FF04020FDF7DCFA10218A48FDF77F
:105070008CFC0A23012210218748FDF7D2FA022175
:105080004FF04020FDF781FC0A23012202214FF05E
:105090004020FDF7C6FA04217F48FDF785FC002279
:1050A00004217D48FDF712FC02217C48FDF77CFCC1
:1050B000002202217948FDF709FCD0217748FDF74D
:1050C00009FD7F48FDF7B1FD7E48FDF7AEFD7E4846
:1050D000FDF7ABFD7D48FFF76DF9FEF7C1FF064612
:1050E00008207B4900230122CDE900103146774892
:1050F000FFF728F97548FFF758F97648FFF7CAFB1C
:10510000FEF7AEFF06466023734A31467148FFF74B
:10511000D1FB7048FFF7B4FB08216148FDF7DBFBCA
:1051200000231A4619465F48FDF744F86023002221
:1051300011465C48FDF75DF800215A48FDF72EF84E
:105140000024002513E000215648FDF7BBF800BFFE
:10515000002211465348FDF702F80028F8D002AAB1
:1051600000215048FDF79DF8029804446D1C802DE5
:10517000E9D3E40940F6CA2084420DD201E0FFF7EA
:1051800087FE02214FF04020FDF790FB00F0020067
:105190000028F4D1FDF7A3FEFEBD1CB54B48FFF778
:1051A00009F9FEF75DFF0446082049490023012262
:1051B000CDE9001021464548FFF7C4F84348FFF702
:1051C000F4F81CBD10B591F8012412B1012A5AD18E
:1051D00028E00288B1F8023421F81320B1F8022443
:1051E000521CA1F802244288B1F8023421F813209D
:1051F000B1F80224521CA1F802248288B1F80234CA
:1052000021F81320B1F80224521CA1F80224C2880C
:10521000B1F8023421F81320B1F80224521CA1F88D
:10522000022430E00388B1F8024401F5007222F84C
:105230001430B1F80224521CA1F802244388B1F8BA
:10524000024401F5007222F81430B1F80224521C15
:10525000A1F802248388B1F8024401F5007222F813
:105260001430B1F80224521CA1F80224C388B1F80A
:10527000024401F5007222F81430B1F80224521CE5
:10528000A1F8022400BF00BF28E00000110000C602
:10529000040800F0003800F00060004000500040BA
:1052A000004002400080034080841E00110000C1C5
:1052B000021C00F0000400F0011800F0000C00F0E7
:1052C0000210010002180100021C010000A00040B1
:1052D000A025260000D0004038C10100B1F802240A
:1052E000B2F5807F25D10022A1F8022491F8012493
:1052F00012B1012A10D107E091F8002422F0010236
:10530000521C81F8002407E091F8002422F00202E8
:10531000921C81F8002400BF00BF91F80124521CA8
:1053200081F8012491F80124022A02D1002281F897
:10533000012410BD70B503461A4691F8014414B11A
:10534000012C2BD112E00C781E2C0EDA002007E085
:10535000147891F8005405444C55521C441CE0B29A
:105360001028F5DB0C78641C0C7017E091F80042F3
:105370001E2C12DA002009E0157891F80044261856
:1053800001F50074A555521C441CE0B21028F3DB53
:1053900091F80042641C81F8004200BF00BF91F800
:1053A0000044103481F8004470BD000070B504461C
:1053B0000D46002201214FF04020FDF787FA022020
:1053C00000F06EF9C4F3074000F06AF9C4F3072057
:1053D00000F066F9E0B200F063F9284600F060F9E9
:1053E000FF2201214FF04020FDF770FA70BD70B52B
:1053F0000446002201214FF04020FDF767FA032008
:1054000000F04EF9C4F3074000F04AF9C4F3072056
:1054100000F046F9E0B200F043F9002000F040F956
:105420000546FF2201214FF04020FDF74FFA2846A4
:1054300070BD2DE9F04104460D46164600220121BB
:105440004FF04020FDF742FA022000F029F9C4F3A2
:10545000074000F025F9C4F3072000F021F9E0B27D
:1054600000F01EF9002704E0287800F019F96D1CFF
:105470007F1CB742F8D3FF2201214FF04020FDF7F7
:1054800025FABDE8F0812DE9F04104460D461646A7
:10549000002201214FF04020FDF718FA032000F010
:1054A000FFF8C4F3074000F0FBF8C4F3072000F056
:1054B000F7F8E0B200F0F4F8002705E0002000F073
:1054C000EFF828706D1C7F1CB742F7D3FF22012133
:1054D0004FF04020FDF7FAF9BDE8F0812DE9FC41DD
:1054E00004460E461746DFF8A0C100DF67490B20CF
:1054F000FFF7D3FB664B324601210B200097FFF7E5
:10550000DBFB0B20FFF73BFB002201214FF040208B
:10551000FDF7DCF9022000F0C3F8C4F3074000F007
:10552000BFF8C4F3072000F0BBF8E0B200F0B8F811
:10553000022157480838FEF794FF082154480838DC
:10554000FEF759FFDFF84CC100DF00224FF6FF7174
:105550000120DFF844C100DFFF2201214FF040208D
:10556000FDF7B4F902214A480838FEF77EFF012111
:1055700047480838FEF779FF082145480838FEF704
:105580003EFF00BF01A942480838FEF75FFF05460D
:10559000002DF7D1BDE8FC812DE9FC4704460F46FC
:1055A0001546FF200190DFF8E0C000DFFDF770FF37
:1055B0003A490B20FFF771FB354B01AA01210B2063
:1055C0000095FFF779FB3B46314A01210A200095FF
:1055D000FFF772FB0A20FFF7D2FA0B20FFF7CFFA92
:1055E000002201214FF04020FDF770F9C4F3074875
:1055F000C4F3072904F0FF0A032000F051F84046E5
:1056000000F04EF8484600F04BF8504600F048F8DD
:1056100001211F480838FEF724FF02211C480838E2
:10562000FEF71FFF08211A480838FEF7E4FEFDF7D1
:1056300027FFDFF860C000DF00224FF6FF71012076
:10564000DFF854C000DFFF2201214FF04020FDF7BA
:105650003DF902210E480838FEF707FF01210C48EA
:105660000838FEF702FF082109480838FEF7C7FE90
:1056700000BF01A906480838FEF7E8FE0646002EDE
:10568000F7D1BDE8FC8700007DA50000008000C0C8
:105690000890004069A60000A59B0000008000CC97
:1056A00038B50446002000900098204300903D4803
:1056B0000099FEF7B0FE69463A48FEF7BEFE009834
:1056C000C5B2284638BD1CB501214FF04020FDF77A
:1056D0006BF9FF2201214FF04020FDF7F7F8324827
:1056E000324908600120091D0860091F0860072170
:1056F0002F48FDF7EFF92F48FDF797FA2E48FDF7F1
:1057000094FA2E48FDF791FA0823662204212848CE
:10571000FCF787FF2348FEF74DFEFEF7A1FC044689
:105720000820274900231A46CDE9001021461D48CC
:10573000FEF708FE1B48406840F010001949486019
:105740000846FEF732FEFFF70BFA1E48FFF732FA63
:105750001D48FFF771FB1C48401EFFF76DFB0F2132
:105760000B20FFF756FA0F210A20FFF752FA1749CC
:105770000B20FFF792FA16490A20FFF78EFA002253
:1057800001214FF04020FDF7A1F80120FFF788FF2D
:105790004020FFF785FFFF2201214FF04020FDF759
:1057A00095F81CBD009000404B434F4C20550240E3
:1057B0000050024002000500020405000208050036
:1057C000002D3101002000200B000100008000C0EE
:1057D0000080000C70B5044600220121E348FDF76B
:1057E00075F804F01F0141F0200000F0FBF90220E1
:1057F00000F00BFA002000F0F5F9022000F005FAA5
:10580000002000F0EFF90546022000F0FEF9FF222B
:105810000121D648FDF75AF8284670BD70B50446F8
:105820000D4600220121D148FDF750F804F01F0178
:1058300041F0400000F0D6F9022000F0E6F9002027
:1058400000F0D0F9022000F0E0F9284600F0CAF993
:10585000022000F0DAF9FF220121C448FDF736F8F2
:1058600070BD70B5054600220121C048FDF72EF835
:10587000202000F0B7F9192000F0B4F9002405E069
:10588000002000F0AFF92855601CC4B21A2CF7DBD9
:10589000FF220121B548FDF719F870BD70B5054626
:1058A00000220121B148FDF711F8402000F09AF9DB
:1058B000192000F097F9002404E0285D00F092F927
:1058C000601CC4B21A2CF8DBFF220121A748FCF7A8
:1058D000FDFF70BD10B5044600220121A348FCF76E
:1058E000F5FF204600F07EF90A2000F08EF9FF2235
:1058F00001219E48FCF7EAFF10BD10B50620FFF716
:10590000E9FF44F6206000F080F910BD10B51120C9
:10591000FFF7E0FF022000F078F910BD2DE9F0411B
:105920000446261D361F002201219048FCF7CEFFB9
:10593000002507E0002000F055F9C5F10201705480
:10594000681CC5B2032DF5DB261D00270EE00025DF
:1059500007E0002000F046F9C5F103017054681C0F
:10596000C5B2032DF5DB361D781CC7B2042FEEDB64
:10597000FF2201217D48FCF7A9FF6068C11700EBF9
:10598000116109126160A068C11700EB1161091271
:10599000A160E068C11700EB11610912E1602069A4
:1059A000C11700EB116109122161BDE8F0812DE9F9
:1059B000F0410446261D361F002201216B48FCF7EA
:1059C00085FF002507E0002000F00CF9C5F1020179
:1059D0007054681CC5B2032DF5DB261D00270EE0B0
:1059E000002507E0002000F0FDF8C5F10301705428
:1059F000681CC5B2032DF5DB361D781CC7B2062F17
:105A0000EEDBFF2201215948FCF760FF6068C117F7
:105A100000EB116109126160A068C11700EB116110
:105A20000912A160E068C11700EB11610912E16081
:105A30002069C11700EB1161091221616069C1176A
:105A400000EB116109126161A069C11700EB1161DE
:105A50000912A161BDE8F08110B5044600F08CF890
:105A6000434800F0AAF8FFF748FFFFF74FFFC021B7
:105A70000320FFF7D3FE84210120FFF7CFFE102182
:105A80000220FFF7CBFE00210520FFF7C7FE002113
:105A90000620FFF7C3FE00210720FFF7BFFE00210D
:105AA0000820FFF7BBFE0E210D20FFF7B7FE0E21E9
:105AB0000846FFF7B3FECC210320FFF7AFFEE2213B
:105AC0001620FFF7ABFE1020FFF704FF0820FFF7BA
:105AD00001FF284800F071F810BD10B5044600F031
